{
  "_format": "hh-sol-artifact-1",
  "contractName": "Frens",
  "sourceName": "contracts/Frens.sol",
  "abi": [
    {
      "inputs": [],
      "stateMutability": "payable",
      "type": "constructor"
    },
    {
      "anonymous": false,
      "inputs": [
        {
          "components": [
            {
              "internalType": "address",
              "name": "pubkey",
              "type": "address"
            },
            {
              "internalType": "string",
              "name": "name",
              "type": "string"
            }
          ],
          "indexed": false,
          "internalType": "struct Frens.fren[]",
          "name": "_frenlist",
          "type": "tuple[]"
        }
      ],
      "name": "FrenListUpdated",
      "type": "event"
    },
    {
      "inputs": [
        {
          "internalType": "address",
          "name": "_pubkey",
          "type": "address"
        },
        {
          "internalType": "string",
          "name": "_name",
          "type": "string"
        }
      ],
      "name": "addfren",
      "outputs": [],
      "stateMutability": "nonpayable",
      "type": "function"
    },
    {
      "inputs": [],
      "name": "createOrFindNewUser",
      "outputs": [],
      "stateMutability": "nonpayable",
      "type": "function"
    },
    {
      "inputs": [
        {
          "internalType": "address",
          "name": "_pubkey",
          "type": "address"
        }
      ],
      "name": "removefren",
      "outputs": [],
      "stateMutability": "nonpayable",
      "type": "function"
    }
  ],
  "bytecode": "0x6080604052611232806100136000396000f3fe608060405234801561001057600080fd5b50600436106100415760003560e01c8063037f30d9146100465780632072887b14610050578063333e98691461006c575b600080fd5b61004e610088565b005b61006a60048036038101906100659190610c15565b610218565b005b61008660048036038101906100819190610c3e565b61062b565b005b600073ffffffffffffffffffffffffffffffffffffffff166000803373ffffffffffffffffffffffffffffffffffffffff1673ffffffffffffffffffffffffffffffffffffffff16815260200190815260200160002060000160009054906101000a900473ffffffffffffffffffffffffffffffffffffffff1673ffffffffffffffffffffffffffffffffffffffff16141561019f57336000803373ffffffffffffffffffffffffffffffffffffffff1673ffffffffffffffffffffffffffffffffffffffff16815260200190815260200160002060000160006101000a81548173ffffffffffffffffffffffffffffffffffffffff021916908373ffffffffffffffffffffffffffffffffffffffff1602179055505b7fe0cb128b9dd81b57e50782b628202c1c600e4119228a89b332a23ebf496625b66000803373ffffffffffffffffffffffffffffffffffffffff1673ffffffffffffffffffffffffffffffffffffffff16815260200190815260200160002060010160405161020e9190610e82565b60405180910390a1565b600073ffffffffffffffffffffffffffffffffffffffff166000803373ffffffffffffffffffffffffffffffffffffffff1673ffffffffffffffffffffffffffffffffffffffff16815260200190815260200160002060000160009054906101000a900473ffffffffffffffffffffffffffffffffffffffff1673ffffffffffffffffffffffffffffffffffffffff1614156102e9576040517f08c379a00000000000000000000000000000000000000000000000000000000081526004016102e090610ec4565b60405180910390fd5b600115156102f68261097c565b151514610338576040517f08c379a000000000000000000000000000000000000000000000000000000000815260040161032f90610ea4565b60405180910390fd5b600073ffffffffffffffffffffffffffffffffffffffff168173ffffffffffffffffffffffffffffffffffffffff1614156103a8576040517f08c379a000000000000000000000000000000000000000000000000000000000815260040161039f90610ee4565b60405180910390fd5b60008060003373ffffffffffffffffffffffffffffffffffffffff1673ffffffffffffffffffffffffffffffffffffffff16815260200190815260200160002060010180549050905060005b818110156105af578273ffffffffffffffffffffffffffffffffffffffff166000803373ffffffffffffffffffffffffffffffffffffffff1673ffffffffffffffffffffffffffffffffffffffff168152602001908152602001600020600101828154811061048c577f4e487b7100000000000000000000000000000000000000000000000000000000600052603260045260246000fd5b906000526020600020906002020160000160009054906101000a900473ffffffffffffffffffffffffffffffffffffffff1673ffffffffffffffffffffffffffffffffffffffff16141561059c576000803373ffffffffffffffffffffffffffffffffffffffff1673ffffffffffffffffffffffffffffffffffffffff1681526020019081526020016000206001018181548110610553577f4e487b7100000000000000000000000000000000000000000000000000000000600052603260045260246000fd5b9060005260206000209060020201600080820160006101000a81549073ffffffffffffffffffffffffffffffffffffffff02191690556001820160006105999190610ad3565b50505b80806105a790611041565b9150506103f4565b507fe0cb128b9dd81b57e50782b628202c1c600e4119228a89b332a23ebf496625b66000803373ffffffffffffffffffffffffffffffffffffffff1673ffffffffffffffffffffffffffffffffffffffff16815260200190815260200160002060010160405161061f9190610e82565b60405180910390a15050565b600073ffffffffffffffffffffffffffffffffffffffff166000803373ffffffffffffffffffffffffffffffffffffffff1673ffffffffffffffffffffffffffffffffffffffff16815260200190815260200160002060000160009054906101000a900473ffffffffffffffffffffffffffffffffffffffff1673ffffffffffffffffffffffffffffffffffffffff1614156106fc576040517f08c379a00000000000000000000000000000000000000000000000000000000081526004016106f390610ec4565b60405180910390fd5b600015156107098461097c565b15151461074b576040517f08c379a000000000000000000000000000000000000000000000000000000000815260040161074290610f04565b60405180910390fd5b600073ffffffffffffffffffffffffffffffffffffffff168373ffffffffffffffffffffffffffffffffffffffff1614156107bb576040517f08c379a00000000000000000000000000000000000000000000000000000000081526004016107b290610ee4565b60405180910390fd5b600060405180604001604052808573ffffffffffffffffffffffffffffffffffffffff16815260200184848080601f016020809104026020016040519081016040528093929190818152602001838380828437600081840152601f19601f8201169050808301925050505050505081525090506000803373ffffffffffffffffffffffffffffffffffffffff1673ffffffffffffffffffffffffffffffffffffffff16815260200190815260200160002060010181908060018154018082558091505060019003906000526020600020906002020160009091909190915060008201518160000160006101000a81548173ffffffffffffffffffffffffffffffffffffffff021916908373ffffffffffffffffffffffffffffffffffffffff16021790555060208201518160010190805190602001906108fc929190610b13565b5050507fe0cb128b9dd81b57e50782b628202c1c600e4119228a89b332a23ebf496625b66000803373ffffffffffffffffffffffffffffffffffffffff1673ffffffffffffffffffffffffffffffffffffffff16815260200190815260200160002060010160405161096e9190610e82565b60405180910390a150505050565b6000806000803373ffffffffffffffffffffffffffffffffffffffff1673ffffffffffffffffffffffffffffffffffffffff1681526020019081526020016000206001018054905090506000805b82811015610ac8578473ffffffffffffffffffffffffffffffffffffffff166000803373ffffffffffffffffffffffffffffffffffffffff1673ffffffffffffffffffffffffffffffffffffffff1681526020019081526020016000206001018281548110610a62577f4e487b7100000000000000000000000000000000000000000000000000000000600052603260045260246000fd5b906000526020600020906002020160000160009054906101000a900473ffffffffffffffffffffffffffffffffffffffff1673ffffffffffffffffffffffffffffffffffffffff161415610ab557600191505b8080610ac090611041565b9150506109ca565b508092505050919050565b508054610adf90610ff5565b6000825580601f10610af15750610b10565b601f016020900490600052602060002090810190610b0f9190610b99565b5b50565b828054610b1f90610ff5565b90600052602060002090601f016020900481019282610b415760008555610b88565b82601f10610b5a57805160ff1916838001178555610b88565b82800160010185558215610b88579182015b82811115610b87578251825591602001919060010190610b6c565b5b509050610b959190610b99565b5090565b5b80821115610bb2576000816000905550600101610b9a565b5090565b600081359050610bc5816111e5565b92915050565b60008083601f840112610bdd57600080fd5b8235905067ffffffffffffffff811115610bf657600080fd5b602083019150836001820283011115610c0e57600080fd5b9250929050565b600060208284031215610c2757600080fd5b6000610c3584828501610bb6565b91505092915050565b600080600060408486031215610c5357600080fd5b6000610c6186828701610bb6565b935050602084013567ffffffffffffffff811115610c7e57600080fd5b610c8a86828701610bcb565b92509250509250925092565b6000610ca28383610e39565b905092915050565b610cb381610fb9565b82525050565b6000610cc482610f4e565b610cce8185610f66565b935083602082028501610ce085610f24565b8060005b85811015610d1b57848403895281610cfc8582610c96565b9450610d0783610f59565b925060208a01995050600181019050610ce4565b50829750879550505050505092915050565b60008154610d3a81610ff5565b610d448186610f77565b94506001821660008114610d5f5760018114610d7157610da4565b60ff1983168652602086019350610da4565b610d7a85610f39565b60005b83811015610d9c57815481890152600182019150602081019050610d7d565b808801955050505b50505092915050565b6000610dba603e83610f88565b9150610dc5826110f5565b604082019050919050565b6000610ddd601e83610f88565b9150610de882611144565b602082019050919050565b6000610e00602083610f88565b9150610e0b8261116d565b602082019050919050565b6000610e23602583610f88565b9150610e2e82611196565b604082019050919050565b6000604083016000808401549050610e5081611027565b610e5d6000870182610caa565b50600184018583036020870152610e748382610d2d565b925050819250505092915050565b60006020820190508181036000830152610e9c8184610cb9565b905092915050565b60006020820190508181036000830152610ebd81610dad565b9050919050565b60006020820190508181036000830152610edd81610dd0565b9050919050565b60006020820190508181036000830152610efd81610df3565b9050919050565b60006020820190508181036000830152610f1d81610e16565b9050919050565b60008190508160005260206000209050919050565b60008190508160005260206000209050919050565b600081549050919050565b6000600282019050919050565b600082825260208201905092915050565b600082825260208201905092915050565b600082825260208201905092915050565b600073ffffffffffffffffffffffffffffffffffffffff82169050919050565b6000610fc482610fcb565b9050919050565b600073ffffffffffffffffffffffffffffffffffffffff82169050919050565b6000819050919050565b6000600282049050600182168061100d57607f821691505b60208210811415611021576110206110b9565b5b50919050565b600061103a611035836110e8565b610f99565b9050919050565b600061104c82610feb565b91507fffffffffffffffffffffffffffffffffffffffffffffffffffffffffffffffff82141561107f5761107e61108a565b5b600182019050919050565b7f4e487b7100000000000000000000000000000000000000000000000000000000600052601160045260246000fd5b7f4e487b7100000000000000000000000000000000000000000000000000000000600052602260045260246000fd5b60008160001c9050919050565b7f75206d75737420726c792068617465207468697320706572736f6e2c2074686560008201527f79277265206e6f74206576656e206f6e207572206672656e73206c6973740000602082015250565b7f73746f70206368656174696e20627275762c2075736520746865206170700000600082015250565b7f6e6577206672656e2063616e27742062652061646472657373203020646f6f64600082015250565b7f6d27626f692c2074686973206164647265737320697320616c7265616479206160008201527f206672656e000000000000000000000000000000000000000000000000000000602082015250565b6111ee81610fb9565b81146111f957600080fd5b5056fea2646970667358221220e4a693c6cf14639058fed862318e5cae1577589c8eb52c28d76ceb4c71469b0364736f6c63430008040033",
  "linkReferences": {},
  "deployedLinkReferences": {}
}