{
  "_format": "hh-sol-artifact-1",
  "contractName": "Frens",
  "sourceName": "contracts/Frens.sol",
  "abi": [
    {
      "inputs": [],
      "stateMutability": "payable",
      "type": "constructor"
    },
    {
      "inputs": [
        {
          "internalType": "string",
          "name": "errorMessage",
          "type": "string"
        }
      ],
      "name": "ZeroAddress",
      "type": "error"
    },
    {
      "anonymous": false,
      "inputs": [
        {
          "components": [
            {
              "internalType": "address",
              "name": "pubkey",
              "type": "address"
            },
            {
              "internalType": "string",
              "name": "name",
              "type": "string"
            }
          ],
          "indexed": false,
          "internalType": "struct Frens.fren[]",
          "name": "_frenlist",
          "type": "tuple[]"
        }
      ],
      "name": "FrenListUpdated",
      "type": "event"
    },
    {
      "inputs": [
        {
          "internalType": "address",
          "name": "_pubkey",
          "type": "address"
        },
        {
          "internalType": "string",
          "name": "_name",
          "type": "string"
        }
      ],
      "name": "addFren",
      "outputs": [],
      "stateMutability": "nonpayable",
      "type": "function"
    },
    {
      "inputs": [],
      "name": "login",
      "outputs": [],
      "stateMutability": "nonpayable",
      "type": "function"
    },
    {
      "inputs": [
        {
          "internalType": "address",
          "name": "_pubkey",
          "type": "address"
        }
      ],
      "name": "removeFren",
      "outputs": [],
      "stateMutability": "nonpayable",
      "type": "function"
    }
  ],
  "bytecode": "0x6080604052611450806100136000396000f3fe608060405234801561001057600080fd5b50600436106100415760003560e01c80636066b5c31461004657806384f3fef314610062578063b34e97e81461007e575b600080fd5b610060600480360381019061005b9190610d66565b610088565b005b61007c60048036038101906100779190610d3d565b610474565b005b6100866108b8565b005b600073ffffffffffffffffffffffffffffffffffffffff166000803373ffffffffffffffffffffffffffffffffffffffff1673ffffffffffffffffffffffffffffffffffffffff16815260200190815260200160002060000160009054906101000a900473ffffffffffffffffffffffffffffffffffffffff1673ffffffffffffffffffffffffffffffffffffffff161415610159576040517f08c379a00000000000000000000000000000000000000000000000000000000081526004016101509061102f565b60405180910390fd5b601460016000803373ffffffffffffffffffffffffffffffffffffffff1673ffffffffffffffffffffffffffffffffffffffff168152602001908152602001600020600101805490506101ac9190611104565b11156101ed576040517f08c379a00000000000000000000000000000000000000000000000000000000081526004016101e490610fef565b60405180910390fd5b60006101f884610a48565b5090506000151581151514610242576040517f08c379a00000000000000000000000000000000000000000000000000000000081526004016102399061104f565b60405180910390fd5b600073ffffffffffffffffffffffffffffffffffffffff168473ffffffffffffffffffffffffffffffffffffffff1614156102b2576040517feac0d3890000000000000000000000000000000000000000000000000000000081526004016102a99061106f565b60405180910390fd5b600060405180604001604052808673ffffffffffffffffffffffffffffffffffffffff16815260200185858080601f016020809104026020016040519081016040528093929190818152602001838380828437600081840152601f19601f8201169050808301925050505050505081525090506000803373ffffffffffffffffffffffffffffffffffffffff1673ffffffffffffffffffffffffffffffffffffffff16815260200190815260200160002060010181908060018154018082558091505060019003906000526020600020906002020160009091909190915060008201518160000160006101000a81548173ffffffffffffffffffffffffffffffffffffffff021916908373ffffffffffffffffffffffffffffffffffffffff16021790555060208201518160010190805190602001906103f3929190610b6e565b5050507fe0cb128b9dd81b57e50782b628202c1c600e4119228a89b332a23ebf496625b66000803373ffffffffffffffffffffffffffffffffffffffff1673ffffffffffffffffffffffffffffffffffffffff1681526020019081526020016000206001016040516104659190610fcd565b60405180910390a15050505050565b600073ffffffffffffffffffffffffffffffffffffffff166000803373ffffffffffffffffffffffffffffffffffffffff1673ffffffffffffffffffffffffffffffffffffffff16815260200190815260200160002060000160009054906101000a900473ffffffffffffffffffffffffffffffffffffffff1673ffffffffffffffffffffffffffffffffffffffff161415610545576040517f08c379a000000000000000000000000000000000000000000000000000000000815260040161053c9061102f565b60405180910390fd5b60008061055183610a48565b91509150600115158215151461059c576040517f08c379a00000000000000000000000000000000000000000000000000000000081526004016105939061100f565b60405180910390fd5b600073ffffffffffffffffffffffffffffffffffffffff168373ffffffffffffffffffffffffffffffffffffffff16141561060c576040517feac0d3890000000000000000000000000000000000000000000000000000000081526004016106039061106f565b60405180910390fd5b60008060003373ffffffffffffffffffffffffffffffffffffffff1673ffffffffffffffffffffffffffffffffffffffff168152602001908152602001600020600101905060018180549050146107b45760008290505b60018280549050610674919061115a565b8110156107b257816001826106899190611104565b815481106106c0577f4e487b7100000000000000000000000000000000000000000000000000000000600052603260045260246000fd5b9060005260206000209060020201828281548110610707577f4e487b7100000000000000000000000000000000000000000000000000000000600052603260045260246000fd5b90600052602060002090600202016000820160009054906101000a900473ffffffffffffffffffffffffffffffffffffffff168160000160006101000a81548173ffffffffffffffffffffffffffffffffffffffff021916908373ffffffffffffffffffffffffffffffffffffffff1602179055506001820181600101908054610790906111ea565b61079b929190610bf4565b5090505080806107aa90611236565b915050610663565b505b808054806107eb577f4e487b7100000000000000000000000000000000000000000000000000000000600052603160045260246000fd5b6001900381819060005260206000209060020201600080820160006101000a81549073ffffffffffffffffffffffffffffffffffffffff02191690556001820160006108379190610c81565b505090557fe0cb128b9dd81b57e50782b628202c1c600e4119228a89b332a23ebf496625b66000803373ffffffffffffffffffffffffffffffffffffffff1673ffffffffffffffffffffffffffffffffffffffff1681526020019081526020016000206001016040516108aa9190610fcd565b60405180910390a150505050565b600073ffffffffffffffffffffffffffffffffffffffff166000803373ffffffffffffffffffffffffffffffffffffffff1673ffffffffffffffffffffffffffffffffffffffff16815260200190815260200160002060000160009054906101000a900473ffffffffffffffffffffffffffffffffffffffff1673ffffffffffffffffffffffffffffffffffffffff1614156109cf57336000803373ffffffffffffffffffffffffffffffffffffffff1673ffffffffffffffffffffffffffffffffffffffff16815260200190815260200160002060000160006101000a81548173ffffffffffffffffffffffffffffffffffffffff021916908373ffffffffffffffffffffffffffffffffffffffff1602179055505b7fe0cb128b9dd81b57e50782b628202c1c600e4119228a89b332a23ebf496625b66000803373ffffffffffffffffffffffffffffffffffffffff1673ffffffffffffffffffffffffffffffffffffffff168152602001908152602001600020600101604051610a3e9190610fcd565b60405180910390a1565b60008060008060003373ffffffffffffffffffffffffffffffffffffffff1673ffffffffffffffffffffffffffffffffffffffff168152602001908152602001600020600101905060008060005b8380549050811015610b5f578673ffffffffffffffffffffffffffffffffffffffff16848281548110610af2577f4e487b7100000000000000000000000000000000000000000000000000000000600052603260045260246000fd5b906000526020600020906002020160000160009054906101000a900473ffffffffffffffffffffffffffffffffffffffff1673ffffffffffffffffffffffffffffffffffffffff161415610b4c5760019250809150610b5f565b8080610b5790611236565b915050610a96565b50818194509450505050915091565b828054610b7a906111ea565b90600052602060002090601f016020900481019282610b9c5760008555610be3565b82601f10610bb557805160ff1916838001178555610be3565b82800160010185558215610be3579182015b82811115610be2578251825591602001919060010190610bc7565b5b509050610bf09190610cc1565b5090565b828054610c00906111ea565b90600052602060002090601f016020900481019282610c225760008555610c70565b82601f10610c335780548555610c70565b82800160010185558215610c7057600052602060002091601f016020900482015b82811115610c6f578254825591600101919060010190610c54565b5b509050610c7d9190610cc1565b5090565b508054610c8d906111ea565b6000825580601f10610c9f5750610cbe565b601f016020900490600052602060002090810190610cbd9190610cc1565b5b50565b5b80821115610cda576000816000905550600101610cc2565b5090565b600081359050610ced81611403565b92915050565b60008083601f840112610d0557600080fd5b8235905067ffffffffffffffff811115610d1e57600080fd5b602083019150836001820283011115610d3657600080fd5b9250929050565b600060208284031215610d4f57600080fd5b6000610d5d84828501610cde565b91505092915050565b600080600060408486031215610d7b57600080fd5b6000610d8986828701610cde565b935050602084013567ffffffffffffffff811115610da657600080fd5b610db286828701610cf3565b92509250509250925092565b6000610dca8383610f84565b905092915050565b610ddb816111ae565b82525050565b6000610dec826110b9565b610df681856110d1565b935083602082028501610e088561108f565b8060005b85811015610e4357848403895281610e248582610dbe565b9450610e2f836110c4565b925060208a01995050600181019050610e0c565b50829750879550505050505092915050565b60008154610e62816111ea565b610e6c81866110e2565b94506001821660008114610e875760018114610e9957610ecc565b60ff1983168652602086019350610ecc565b610ea2856110a4565b60005b83811015610ec457815481890152600182019150602081019050610ea5565b808801955050505b50505092915050565b6000610ee26014836110f3565b9150610eed826112ea565b602082019050919050565b6000610f05603e836110f3565b9150610f1082611313565b604082019050919050565b6000610f28601e836110f3565b9150610f3382611362565b602082019050919050565b6000610f4b6025836110f3565b9150610f568261138b565b604082019050919050565b6000610f6e601c836110f3565b9150610f79826113da565b602082019050919050565b6000604083016000808401549050610f9b8161121c565b610fa86000870182610dd2565b50600184018583036020870152610fbf8382610e55565b925050819250505092915050565b60006020820190508181036000830152610fe78184610de1565b905092915050565b6000602082019050818103600083015261100881610ed5565b9050919050565b6000602082019050818103600083015261102881610ef8565b9050919050565b6000602082019050818103600083015261104881610f1b565b9050919050565b6000602082019050818103600083015261106881610f3e565b9050919050565b6000602082019050818103600083015261108881610f61565b9050919050565b60008190508160005260206000209050919050565b60008190508160005260206000209050919050565b600081549050919050565b6000600282019050919050565b600082825260208201905092915050565b600082825260208201905092915050565b600082825260208201905092915050565b600061110f826111e0565b915061111a836111e0565b9250827fffffffffffffffffffffffffffffffffffffffffffffffffffffffffffffffff0382111561114f5761114e61127f565b5b828201905092915050565b6000611165826111e0565b9150611170836111e0565b9250828210156111835761118261127f565b5b828203905092915050565b600073ffffffffffffffffffffffffffffffffffffffff82169050919050565b60006111b9826111c0565b9050919050565b600073ffffffffffffffffffffffffffffffffffffffff82169050919050565b6000819050919050565b6000600282049050600182168061120257607f821691505b60208210811415611216576112156112ae565b5b50919050565b600061122f61122a836112dd565b61118e565b9050919050565b6000611241826111e0565b91507fffffffffffffffffffffffffffffffffffffffffffffffffffffffffffffffff8214156112745761127361127f565b5b600182019050919050565b7f4e487b7100000000000000000000000000000000000000000000000000000000600052601160045260246000fd5b7f4e487b7100000000000000000000000000000000000000000000000000000000600052602260045260246000fd5b60008160001c9050919050565b7f6d617820323020667269656e647320686f6d6965000000000000000000000000600082015250565b7f75206d75737420726c792068617465207468697320706572736f6e2c2074686560008201527f79277265206e6f74206576656e206f6e207572206672656e73206c6973740000602082015250565b7f73746f70206368656174696e20627275762c2075736520746865206170700000600082015250565b7f6d27626f692c2074686973206164647265737320697320616c7265616479206160008201527f206672656e000000000000000000000000000000000000000000000000000000602082015250565b7f6672656e2063616e27742062652061646472657373203020646f6f6400000000600082015250565b61140c816111ae565b811461141757600080fd5b5056fea26469706673582212202b52514e8c6a66e773cdee0664af5c9f63847fdf0e75a4cbb4c4f66968811c3a64736f6c63430008040033",
  "linkReferences": {},
  "deployedLinkReferences": {}
}