{
  "_format": "hh-sol-artifact-1",
  "contractName": "Frens",
  "sourceName": "contracts/Frens.sol",
  "abi": [
    {
      "inputs": [],
      "stateMutability": "payable",
      "type": "constructor"
    },
    {
      "anonymous": false,
      "inputs": [
        {
          "components": [
            {
              "internalType": "address",
              "name": "pubkey",
              "type": "address"
            },
            {
              "internalType": "string",
              "name": "name",
              "type": "string"
            }
          ],
          "indexed": false,
          "internalType": "struct Frens.fren[]",
          "name": "_frenlist",
          "type": "tuple[]"
        }
      ],
      "name": "FrenListUpdated",
      "type": "event"
    },
    {
      "inputs": [
        {
          "internalType": "address",
          "name": "_pubkey",
          "type": "address"
        },
        {
          "internalType": "string",
          "name": "_name",
          "type": "string"
        }
      ],
      "name": "addfren",
      "outputs": [],
      "stateMutability": "nonpayable",
      "type": "function"
    },
    {
      "inputs": [],
      "name": "createOrFindNewUser",
      "outputs": [],
      "stateMutability": "nonpayable",
      "type": "function"
    },
    {
      "inputs": [
        {
          "internalType": "address",
          "name": "_pubkey",
          "type": "address"
        }
      ],
      "name": "removefren",
      "outputs": [],
      "stateMutability": "nonpayable",
      "type": "function"
    }
  ],
  "bytecode": "0x60806040526110e6806100136000396000f3fe608060405234801561001057600080fd5b50600436106100415760003560e01c8063037f30d9146100465780632072887b14610050578063333e98691461006c575b600080fd5b61004e610088565b005b61006a60048036038101906100659190610b35565b610218565b005b61008660048036038101906100819190610b5e565b6105bb565b005b600073ffffffffffffffffffffffffffffffffffffffff166000803373ffffffffffffffffffffffffffffffffffffffff1673ffffffffffffffffffffffffffffffffffffffff16815260200190815260200160002060000160009054906101000a900473ffffffffffffffffffffffffffffffffffffffff1673ffffffffffffffffffffffffffffffffffffffff16141561019f57336000803373ffffffffffffffffffffffffffffffffffffffff1673ffffffffffffffffffffffffffffffffffffffff16815260200190815260200160002060000160006101000a81548173ffffffffffffffffffffffffffffffffffffffff021916908373ffffffffffffffffffffffffffffffffffffffff1602179055505b7fe0cb128b9dd81b57e50782b628202c1c600e4119228a89b332a23ebf496625b66000803373ffffffffffffffffffffffffffffffffffffffff1673ffffffffffffffffffffffffffffffffffffffff16815260200190815260200160002060010160405161020e9190610d7f565b60405180910390a1565b600073ffffffffffffffffffffffffffffffffffffffff166000803373ffffffffffffffffffffffffffffffffffffffff1673ffffffffffffffffffffffffffffffffffffffff16815260200190815260200160002060000160009054906101000a900473ffffffffffffffffffffffffffffffffffffffff1673ffffffffffffffffffffffffffffffffffffffff1614156102e9576040517f08c379a00000000000000000000000000000000000000000000000000000000081526004016102e090610dc1565b60405180910390fd5b600115156102f68261089c565b151514610338576040517f08c379a000000000000000000000000000000000000000000000000000000000815260040161032f90610da1565b60405180910390fd5b60008060003373ffffffffffffffffffffffffffffffffffffffff1673ffffffffffffffffffffffffffffffffffffffff16815260200190815260200160002060010180549050905060005b8181101561053f578273ffffffffffffffffffffffffffffffffffffffff166000803373ffffffffffffffffffffffffffffffffffffffff1673ffffffffffffffffffffffffffffffffffffffff168152602001908152602001600020600101828154811061041c577f4e487b7100000000000000000000000000000000000000000000000000000000600052603260045260246000fd5b906000526020600020906002020160000160009054906101000a900473ffffffffffffffffffffffffffffffffffffffff1673ffffffffffffffffffffffffffffffffffffffff16141561052c576000803373ffffffffffffffffffffffffffffffffffffffff1673ffffffffffffffffffffffffffffffffffffffff16815260200190815260200160002060010181815481106104e3577f4e487b7100000000000000000000000000000000000000000000000000000000600052603260045260246000fd5b9060005260206000209060020201600080820160006101000a81549073ffffffffffffffffffffffffffffffffffffffff021916905560018201600061052991906109f3565b50505b808061053790610f1e565b915050610384565b507fe0cb128b9dd81b57e50782b628202c1c600e4119228a89b332a23ebf496625b66000803373ffffffffffffffffffffffffffffffffffffffff1673ffffffffffffffffffffffffffffffffffffffff1681526020019081526020016000206001016040516105af9190610d7f565b60405180910390a15050565b600073ffffffffffffffffffffffffffffffffffffffff166000803373ffffffffffffffffffffffffffffffffffffffff1673ffffffffffffffffffffffffffffffffffffffff16815260200190815260200160002060000160009054906101000a900473ffffffffffffffffffffffffffffffffffffffff1673ffffffffffffffffffffffffffffffffffffffff16141561068c576040517f08c379a000000000000000000000000000000000000000000000000000000000815260040161068390610dc1565b60405180910390fd5b600015156106998461089c565b1515146106db576040517f08c379a00000000000000000000000000000000000000000000000000000000081526004016106d290610de1565b60405180910390fd5b600060405180604001604052808573ffffffffffffffffffffffffffffffffffffffff16815260200184848080601f016020809104026020016040519081016040528093929190818152602001838380828437600081840152601f19601f8201169050808301925050505050505081525090506000803373ffffffffffffffffffffffffffffffffffffffff1673ffffffffffffffffffffffffffffffffffffffff16815260200190815260200160002060010181908060018154018082558091505060019003906000526020600020906002020160009091909190915060008201518160000160006101000a81548173ffffffffffffffffffffffffffffffffffffffff021916908373ffffffffffffffffffffffffffffffffffffffff160217905550602082015181600101908051906020019061081c929190610a33565b5050507fe0cb128b9dd81b57e50782b628202c1c600e4119228a89b332a23ebf496625b66000803373ffffffffffffffffffffffffffffffffffffffff1673ffffffffffffffffffffffffffffffffffffffff16815260200190815260200160002060010160405161088e9190610d7f565b60405180910390a150505050565b6000806000803373ffffffffffffffffffffffffffffffffffffffff1673ffffffffffffffffffffffffffffffffffffffff1681526020019081526020016000206001018054905090506000805b828110156109e8578473ffffffffffffffffffffffffffffffffffffffff166000803373ffffffffffffffffffffffffffffffffffffffff1673ffffffffffffffffffffffffffffffffffffffff1681526020019081526020016000206001018281548110610982577f4e487b7100000000000000000000000000000000000000000000000000000000600052603260045260246000fd5b906000526020600020906002020160000160009054906101000a900473ffffffffffffffffffffffffffffffffffffffff1673ffffffffffffffffffffffffffffffffffffffff1614156109d557600191505b80806109e090610f1e565b9150506108ea565b508092505050919050565b5080546109ff90610ed2565b6000825580601f10610a115750610a30565b601f016020900490600052602060002090810190610a2f9190610ab9565b5b50565b828054610a3f90610ed2565b90600052602060002090601f016020900481019282610a615760008555610aa8565b82601f10610a7a57805160ff1916838001178555610aa8565b82800160010185558215610aa8579182015b82811115610aa7578251825591602001919060010190610a8c565b5b509050610ab59190610ab9565b5090565b5b80821115610ad2576000816000905550600101610aba565b5090565b600081359050610ae581611099565b92915050565b60008083601f840112610afd57600080fd5b8235905067ffffffffffffffff811115610b1657600080fd5b602083019150836001820283011115610b2e57600080fd5b9250929050565b600060208284031215610b4757600080fd5b6000610b5584828501610ad6565b91505092915050565b600080600060408486031215610b7357600080fd5b6000610b8186828701610ad6565b935050602084013567ffffffffffffffff811115610b9e57600080fd5b610baa86828701610aeb565b92509250509250925092565b6000610bc28383610d36565b905092915050565b610bd381610e96565b82525050565b6000610be482610e2b565b610bee8185610e43565b935083602082028501610c0085610e01565b8060005b85811015610c3b57848403895281610c1c8582610bb6565b9450610c2783610e36565b925060208a01995050600181019050610c04565b50829750879550505050505092915050565b60008154610c5a81610ed2565b610c648186610e54565b94506001821660008114610c7f5760018114610c9157610cc4565b60ff1983168652602086019350610cc4565b610c9a85610e16565b60005b83811015610cbc57815481890152600182019150602081019050610c9d565b808801955050505b50505092915050565b6000610cda603e83610e65565b9150610ce582610fd2565b604082019050919050565b6000610cfd601e83610e65565b9150610d0882611021565b602082019050919050565b6000610d20602583610e65565b9150610d2b8261104a565b604082019050919050565b6000604083016000808401549050610d4d81610f04565b610d5a6000870182610bca565b50600184018583036020870152610d718382610c4d565b925050819250505092915050565b60006020820190508181036000830152610d998184610bd9565b905092915050565b60006020820190508181036000830152610dba81610ccd565b9050919050565b60006020820190508181036000830152610dda81610cf0565b9050919050565b60006020820190508181036000830152610dfa81610d13565b9050919050565b60008190508160005260206000209050919050565b60008190508160005260206000209050919050565b600081549050919050565b6000600282019050919050565b600082825260208201905092915050565b600082825260208201905092915050565b600082825260208201905092915050565b600073ffffffffffffffffffffffffffffffffffffffff82169050919050565b6000610ea182610ea8565b9050919050565b600073ffffffffffffffffffffffffffffffffffffffff82169050919050565b6000819050919050565b60006002820490506001821680610eea57607f821691505b60208210811415610efe57610efd610f96565b5b50919050565b6000610f17610f1283610fc5565b610e76565b9050919050565b6000610f2982610ec8565b91507fffffffffffffffffffffffffffffffffffffffffffffffffffffffffffffffff821415610f5c57610f5b610f67565b5b600182019050919050565b7f4e487b7100000000000000000000000000000000000000000000000000000000600052601160045260246000fd5b7f4e487b7100000000000000000000000000000000000000000000000000000000600052602260045260246000fd5b60008160001c9050919050565b7f75206d75737420726c792068617465207468697320706572736f6e2c2074686560008201527f79277265206e6f74206576656e206f6e207572206672656e73206c6973740000602082015250565b7f73746f70206368656174696e20627275762c2075736520746865206170700000600082015250565b7f6d27626f692c2074686973206164647265737320697320616c7265616479206160008201527f206672656e000000000000000000000000000000000000000000000000000000602082015250565b6110a281610e96565b81146110ad57600080fd5b5056fea26469706673582212206271b4d74121743e6a24d1a64cb6ccbea71180ab6b0392dac946893a1b13803764736f6c63430008040033",
  "linkReferences": {},
  "deployedLinkReferences": {}
}