{
  "_format": "hh-sol-artifact-1",
  "contractName": "Frens",
  "sourceName": "contracts/Frens.sol",
  "abi": [
    {
      "inputs": [],
      "stateMutability": "payable",
      "type": "constructor"
    },
    {
      "inputs": [
        {
          "internalType": "string",
          "name": "errorMessage",
          "type": "string"
        }
      ],
      "name": "ZeroAddress",
      "type": "error"
    },
    {
      "anonymous": false,
      "inputs": [
        {
          "components": [
            {
              "internalType": "address",
              "name": "pubkey",
              "type": "address"
            },
            {
              "internalType": "string",
              "name": "name",
              "type": "string"
            }
          ],
          "indexed": false,
          "internalType": "struct Frens.fren[]",
          "name": "_frenlist",
          "type": "tuple[]"
        }
      ],
      "name": "FrenListUpdated",
      "type": "event"
    },
    {
      "inputs": [
        {
          "internalType": "address",
          "name": "_pubkey",
          "type": "address"
        },
        {
          "internalType": "string",
          "name": "_name",
          "type": "string"
        }
      ],
      "name": "addFren",
      "outputs": [],
      "stateMutability": "nonpayable",
      "type": "function"
    },
    {
      "inputs": [],
      "name": "login",
      "outputs": [],
      "stateMutability": "nonpayable",
      "type": "function"
    },
    {
      "inputs": [
        {
          "internalType": "address",
          "name": "_pubkey",
          "type": "address"
        }
      ],
      "name": "removeFren",
      "outputs": [],
      "stateMutability": "nonpayable",
      "type": "function"
    }
  ],
  "bytecode": "0x6080604052611350806100136000396000f3fe608060405234801561001057600080fd5b50600436106100415760003560e01c80636066b5c31461004657806384f3fef314610062578063b34e97e81461007e575b600080fd5b610060600480360381019061005b9190610cd2565b610088565b005b61007c60048036038101906100779190610ca9565b6103e0565b005b610086610824565b005b600073ffffffffffffffffffffffffffffffffffffffff166000803373ffffffffffffffffffffffffffffffffffffffff1673ffffffffffffffffffffffffffffffffffffffff16815260200190815260200160002060000160009054906101000a900473ffffffffffffffffffffffffffffffffffffffff1673ffffffffffffffffffffffffffffffffffffffff161415610159576040517f08c379a000000000000000000000000000000000000000000000000000000000815260040161015090610f58565b60405180910390fd5b6000610164846109b4565b50905060001515811515146101ae576040517f08c379a00000000000000000000000000000000000000000000000000000000081526004016101a590610f78565b60405180910390fd5b600073ffffffffffffffffffffffffffffffffffffffff168473ffffffffffffffffffffffffffffffffffffffff16141561021e576040517feac0d38900000000000000000000000000000000000000000000000000000000815260040161021590610f98565b60405180910390fd5b600060405180604001604052808673ffffffffffffffffffffffffffffffffffffffff16815260200185858080601f016020809104026020016040519081016040528093929190818152602001838380828437600081840152601f19601f8201169050808301925050505050505081525090506000803373ffffffffffffffffffffffffffffffffffffffff1673ffffffffffffffffffffffffffffffffffffffff16815260200190815260200160002060010181908060018154018082558091505060019003906000526020600020906002020160009091909190915060008201518160000160006101000a81548173ffffffffffffffffffffffffffffffffffffffff021916908373ffffffffffffffffffffffffffffffffffffffff160217905550602082015181600101908051906020019061035f929190610ada565b5050507fe0cb128b9dd81b57e50782b628202c1c600e4119228a89b332a23ebf496625b66000803373ffffffffffffffffffffffffffffffffffffffff1673ffffffffffffffffffffffffffffffffffffffff1681526020019081526020016000206001016040516103d19190610f16565b60405180910390a15050505050565b600073ffffffffffffffffffffffffffffffffffffffff166000803373ffffffffffffffffffffffffffffffffffffffff1673ffffffffffffffffffffffffffffffffffffffff16815260200190815260200160002060000160009054906101000a900473ffffffffffffffffffffffffffffffffffffffff1673ffffffffffffffffffffffffffffffffffffffff1614156104b1576040517f08c379a00000000000000000000000000000000000000000000000000000000081526004016104a890610f58565b60405180910390fd5b6000806104bd836109b4565b915091506001151582151514610508576040517f08c379a00000000000000000000000000000000000000000000000000000000081526004016104ff90610f38565b60405180910390fd5b600073ffffffffffffffffffffffffffffffffffffffff168373ffffffffffffffffffffffffffffffffffffffff161415610578576040517feac0d38900000000000000000000000000000000000000000000000000000000815260040161056f90610f98565b60405180910390fd5b60008060003373ffffffffffffffffffffffffffffffffffffffff1673ffffffffffffffffffffffffffffffffffffffff168152602001908152602001600020600101905060018180549050146107205760008290505b600182805490506105e09190611083565b81101561071e57816001826105f5919061102d565b8154811061062c577f4e487b7100000000000000000000000000000000000000000000000000000000600052603260045260246000fd5b9060005260206000209060020201828281548110610673577f4e487b7100000000000000000000000000000000000000000000000000000000600052603260045260246000fd5b90600052602060002090600202016000820160009054906101000a900473ffffffffffffffffffffffffffffffffffffffff168160000160006101000a81548173ffffffffffffffffffffffffffffffffffffffff021916908373ffffffffffffffffffffffffffffffffffffffff16021790555060018201816001019080546106fc90611113565b610707929190610b60565b5090505080806107169061115f565b9150506105cf565b505b80805480610757577f4e487b7100000000000000000000000000000000000000000000000000000000600052603160045260246000fd5b6001900381819060005260206000209060020201600080820160006101000a81549073ffffffffffffffffffffffffffffffffffffffff02191690556001820160006107a39190610bed565b505090557fe0cb128b9dd81b57e50782b628202c1c600e4119228a89b332a23ebf496625b66000803373ffffffffffffffffffffffffffffffffffffffff1673ffffffffffffffffffffffffffffffffffffffff1681526020019081526020016000206001016040516108169190610f16565b60405180910390a150505050565b600073ffffffffffffffffffffffffffffffffffffffff166000803373ffffffffffffffffffffffffffffffffffffffff1673ffffffffffffffffffffffffffffffffffffffff16815260200190815260200160002060000160009054906101000a900473ffffffffffffffffffffffffffffffffffffffff1673ffffffffffffffffffffffffffffffffffffffff16141561093b57336000803373ffffffffffffffffffffffffffffffffffffffff1673ffffffffffffffffffffffffffffffffffffffff16815260200190815260200160002060000160006101000a81548173ffffffffffffffffffffffffffffffffffffffff021916908373ffffffffffffffffffffffffffffffffffffffff1602179055505b7fe0cb128b9dd81b57e50782b628202c1c600e4119228a89b332a23ebf496625b66000803373ffffffffffffffffffffffffffffffffffffffff1673ffffffffffffffffffffffffffffffffffffffff1681526020019081526020016000206001016040516109aa9190610f16565b60405180910390a1565b60008060008060003373ffffffffffffffffffffffffffffffffffffffff1673ffffffffffffffffffffffffffffffffffffffff168152602001908152602001600020600101905060008060005b8380549050811015610acb578673ffffffffffffffffffffffffffffffffffffffff16848281548110610a5e577f4e487b7100000000000000000000000000000000000000000000000000000000600052603260045260246000fd5b906000526020600020906002020160000160009054906101000a900473ffffffffffffffffffffffffffffffffffffffff1673ffffffffffffffffffffffffffffffffffffffff161415610ab85760019250809150610acb565b8080610ac39061115f565b915050610a02565b50818194509450505050915091565b828054610ae690611113565b90600052602060002090601f016020900481019282610b085760008555610b4f565b82601f10610b2157805160ff1916838001178555610b4f565b82800160010185558215610b4f579182015b82811115610b4e578251825591602001919060010190610b33565b5b509050610b5c9190610c2d565b5090565b828054610b6c90611113565b90600052602060002090601f016020900481019282610b8e5760008555610bdc565b82601f10610b9f5780548555610bdc565b82800160010185558215610bdc57600052602060002091601f016020900482015b82811115610bdb578254825591600101919060010190610bc0565b5b509050610be99190610c2d565b5090565b508054610bf990611113565b6000825580601f10610c0b5750610c2a565b601f016020900490600052602060002090810190610c299190610c2d565b5b50565b5b80821115610c46576000816000905550600101610c2e565b5090565b600081359050610c5981611303565b92915050565b60008083601f840112610c7157600080fd5b8235905067ffffffffffffffff811115610c8a57600080fd5b602083019150836001820283011115610ca257600080fd5b9250929050565b600060208284031215610cbb57600080fd5b6000610cc984828501610c4a565b91505092915050565b600080600060408486031215610ce757600080fd5b6000610cf586828701610c4a565b935050602084013567ffffffffffffffff811115610d1257600080fd5b610d1e86828701610c5f565b92509250509250925092565b6000610d368383610ecd565b905092915050565b610d47816110d7565b82525050565b6000610d5882610fe2565b610d628185610ffa565b935083602082028501610d7485610fb8565b8060005b85811015610daf57848403895281610d908582610d2a565b9450610d9b83610fed565b925060208a01995050600181019050610d78565b50829750879550505050505092915050565b60008154610dce81611113565b610dd8818661100b565b94506001821660008114610df35760018114610e0557610e38565b60ff1983168652602086019350610e38565b610e0e85610fcd565b60005b83811015610e3057815481890152600182019150602081019050610e11565b808801955050505b50505092915050565b6000610e4e603e8361101c565b9150610e5982611213565b604082019050919050565b6000610e71601e8361101c565b9150610e7c82611262565b602082019050919050565b6000610e9460258361101c565b9150610e9f8261128b565b604082019050919050565b6000610eb7601c8361101c565b9150610ec2826112da565b602082019050919050565b6000604083016000808401549050610ee481611145565b610ef16000870182610d3e565b50600184018583036020870152610f088382610dc1565b925050819250505092915050565b60006020820190508181036000830152610f308184610d4d565b905092915050565b60006020820190508181036000830152610f5181610e41565b9050919050565b60006020820190508181036000830152610f7181610e64565b9050919050565b60006020820190508181036000830152610f9181610e87565b9050919050565b60006020820190508181036000830152610fb181610eaa565b9050919050565b60008190508160005260206000209050919050565b60008190508160005260206000209050919050565b600081549050919050565b6000600282019050919050565b600082825260208201905092915050565b600082825260208201905092915050565b600082825260208201905092915050565b600061103882611109565b915061104383611109565b9250827fffffffffffffffffffffffffffffffffffffffffffffffffffffffffffffffff03821115611078576110776111a8565b5b828201905092915050565b600061108e82611109565b915061109983611109565b9250828210156110ac576110ab6111a8565b5b828203905092915050565b600073ffffffffffffffffffffffffffffffffffffffff82169050919050565b60006110e2826110e9565b9050919050565b600073ffffffffffffffffffffffffffffffffffffffff82169050919050565b6000819050919050565b6000600282049050600182168061112b57607f821691505b6020821081141561113f5761113e6111d7565b5b50919050565b600061115861115383611206565b6110b7565b9050919050565b600061116a82611109565b91507fffffffffffffffffffffffffffffffffffffffffffffffffffffffffffffffff82141561119d5761119c6111a8565b5b600182019050919050565b7f4e487b7100000000000000000000000000000000000000000000000000000000600052601160045260246000fd5b7f4e487b7100000000000000000000000000000000000000000000000000000000600052602260045260246000fd5b60008160001c9050919050565b7f75206d75737420726c792068617465207468697320706572736f6e2c2074686560008201527f79277265206e6f74206576656e206f6e207572206672656e73206c6973740000602082015250565b7f73746f70206368656174696e20627275762c2075736520746865206170700000600082015250565b7f6d27626f692c2074686973206164647265737320697320616c7265616479206160008201527f206672656e000000000000000000000000000000000000000000000000000000602082015250565b7f6672656e2063616e27742062652061646472657373203020646f6f6400000000600082015250565b61130c816110d7565b811461131757600080fd5b5056fea26469706673582212206183c2b9797d6273a55c9b416d20671c628f863103a02102435ee0ef9e58779164736f6c63430008040033",
  "linkReferences": {},
  "deployedLinkReferences": {}
}